:060000000A128A110C280F
:10000800FE00030EF0000A08F1000A128A11752A90
:100018000A128A110F2883120313AD01AE01AF0132
:10002800B001B101B20183010A128A111B2883169B
:10003800031386018312031386018316031308141E
:1000480088140815071536280D30F700AF30F6006C
:10005800B630F500F50B2E28F60B2E28F70B2E28B8
:1000680000003C2883120313071D3B283C2828283E
:1000780083120313071D412842284D288B170B179D
:10008800831603130C15831203130C110530970004
:100098005328313090000B308F00DB308E00A001E8
:1000A800A101A301A4010030AA000030A90000307A
:1000B800A8000030A700F628081C632864287B28BD
:1000C8004130F600EE30F500F50B6828F60B68288D
:1000D800000083120313081C722873287B28081851
:1000E8007628772873280130A3000030A4000C1C60
:1000F8007E287F2886280C100130B1070318B20A21
:100108000030B207003032020A3003193102031CF2
:100118008E288F28D028B101B2013B302006210457
:10012800031D97289828CA28A001A10109302A068A
:10013800031D9F28A028C728AA0105302906031DEA
:10014800A628A728C428A90109302806031DAD2818
:10015800AE28C128A80103302806031DB428B528F5
:10016800BE2802302706031DBA28BB28BE28A801CE
:10017800A701D0280130A707D0280130A807D02828
:100188000130A907D0280130AA07D0280130A007DC
:100198000318A10A0030A107A501A6012508273EDA
:1001A80084008313000886002508013EF200260813
:1001B8000318013E003EF3000A128A115D220A125A
:1001C8008A11013083120313A5070318A60A003009
:1001D800A60700302602043003192502031CF5285F
:1001E800F628D228230824040319FB28FC286028B1
:1001F800B101B2010130AB000030AC009129081CFC
:10020800062907291E294130F600EE30F500F50BC6
:100218000B29F60B0B29000083120313081C152960
:1002280016291E29081819291A2916290230A30087
:100238000030A400881C212922293B294130F600DE
:10024800EE30F500F50B2629F60B2629000083125F
:100258000313881C302931293B290130AB070318C7
:10026800AC0A0030AC0788183A293B293729081D01
:100278003E293F296F294130F600EE30F500F50B95
:100288004329F60B4329000083120313081D4D2947
:100298004E296F290130AB020030031CAC03AC02BD
:1002A80008195729582954296F290430AB00003000
:1002B800AC0088292708860088292808860088290C
:1002C8002908860088292A08860088290130AB0079
:1002D8000030AC0088292C08003A031974298829B1
:1002E8002B08003A03195929013A03195E29033AE0
:1002F80003196129013A03196429073A031967297F
:10030800013A03196A2988292C08F3002B08F200FE
:100318000A128A115D220A128A1183120313230317
:10032800240403199829992903290930A200A82926
:100338000230A200B52902302706031DA429A529E9
:10034800B5290430A200B5292C08003A0319AD29B3
:10035800B5292B08013A03199C29033A03199F2947
:10036800B5290030F200F3000A128A115D220A1240
:100378008A110D30F700AF30F600B630F500F50BF6
:10038800C329F60BC329F70BC3290000502A081C00
:10039800CE29CF29E4294130F600EE30F500F50BDF
:1003A800D329F60BD329000083120313081CDD2977
:1003B800DE29E4290818E129E229DE29A301A4019C
:1003C800881CE729E829122A4130F600EE30F500AA
:1003D800F50BEC29F60BEC29000083120313881C9B
:1003E800F629F729122A2B08FF3E273E840083139B
:1003F80000082206031D012A022A082A2B08FF3EAC
:10040800273E840080010E2A2B08FF3E273E8400E9
:10041800013080078818112A122A0E2A081D152A69
:10042800162A402A4130F600EE30F500F50B1A2A5C
:10043800F60B1A2A000083120313081D242A252A02
:10044800402A2B08FF3E273E840083130008031D23
:100458002E2A2F2A362A2B08FF3E273E8400220800
:1004680080003C2A2B08FF3E273E84000130800292
:1004780008193F2A402A3C2A2B08FF3E273E8400C1
:100488008313000886002C08F3002B08F2000A12D8
:100498008A115D220A128A1102308312031323067D
:1004A80024040319582A592ACB29F6280A128A1132
:1004B8000C280F308312031386057208730403197E
:1004C800662A672A742A1030F4007208FF3E013E3B
:1004D8006F2A0310F40DFF3E031D6D2A740886046D
:1004E8000800831203130C1D7A2A7B2A822A0C1116
:1004F8000130B1070318B20A0030B20771088A0048
:0A050800700E8300FE0E7E0E090047
:00000001FF
