:060000000A128A11FC2F18
:100ED8000F308312031386051030F2007008FF3EAE
:100EE800013E782F0310F20DFF3E031D762F720886
:100EF80086040800831603138601831203138601F0
:100F0800F501F801F601F701013090008E018F011B
:100F1800F301F401831203130C1C932F942FC62F93
:100F28000C100130F3070318F40A0030F4070030FE
:100F380074024C3003197302031CA32FA42FC62F6D
:100F4800F301F40109307706031DAB2FAC2FC42F32
:100F5800F70105307606031DB22FB32FC12FF60116
:100F680009307806031DB92FBA2FBE2FF8010130BA
:100F7800F507C62F0130F807C62F0130F607C62F30
:100F88000130F707770886000430F0000030F100E0
:100F98000A128A116C270A128A117608831203131F
:100FA80086000330F0000030F1000A128A116C2725
:100FB8000A128A1178088312031386000230F0009F
:100FC8000030F1000A128A116C270A128A1175087A
:100FD8008312031386000130F0000030F1000A127A
:100FE8008A116C270A128A118E2F0A128A11002878
:080FF80083010A128A117E2F09
:00000001FF
