:060000000A128A11FC2F18
:100B94000F30831203138605700871040319D32DD3
:100BA400D42DE12D1030F2007008FF3E013EDC2D03
:100BB4000310F20DFF3E031DDA2D720886040800AF
:100BC400831603138601831203138601831603130A
:100BD40008148814081583120313AA01AB01A70192
:100BE400A801313090000B308F00DB308E00A00163
:100BF400A101A301A4010130A5000030A600952E97
:100C0400081C052E062E1D2E4130F400EE30F30094
:100C1400F30B0A2EF40B0A2E000083120313081C94
:100C2400142E152E1D2E0818182E192E152E0130CF
:100C3400A3000030A4000C1C202E212E632E0C10C7
:100C440000302102093003192002031C2A2E2B2E06
:100C54005D2EA001A10109302806031D322E332E7A
:100C64005A2EA80105302706031D392E3A2E572E79
:100C7400A70109302B06031D402E412E542EAB0133
:100C840003302B06031D472E482E512E02302A0610
:100C9400031D4D2E4E2E512EAB01AA01632E0130A1
:100CA400AA07632E0130AB07632E0130A707632E1A
:100CB4000130A807632E0130A0070318A10A0030F1
:100CC400A107280886000430F0000030F1000A1261
:100CD4008A11CA250A128A1183120313270886006F
:100CE4000330F0000030F1000A128A11CA250A12FA
:100CF4008A11831203132B0886000230F00000309F
:100D0400F1000A128A11CA250A128A1183120313E6
:100D14002A0886000130F0000030F1000A128A111E
:100D2400CA250A128A1183120313230824040319FF
:100D34009C2E9D2E022EA001A1012E2F081CA32E55
:100D4400A42EBB2E4130F400EE30F300F30BA82E9A
:100D5400F40BA82E000083120313081CB22EB32E2A
:100D6400BB2E0818B62EB72EB32E0230A3000030C7
:100D7400A400881CBE2EBF2ED82E4130F400EE30C5
:100D8400F300F30BC32EF40BC32E000083120313E2
:100D9400881CCD2ECE2ED82E0130A5070318A60A06
:100DA4000030A6078818D72ED82ED42E081DDB2E87
:100DB400DC2E0C2F4130F400EE30F300F30BE02E68
:100DC400F40BE02E000083120313081DEA2EEB2E11
:100DD4000C2F0130A5020030031CA603A60208193B
:100DE400F42EF52EF12E0C2F0430A5000030A600B1
:100DF400252F2A088600252F2B088600252F270853
:100E04008600252F28088600252F0130A5000030F4
:100E1400A600252F2608003A0319112F252F25088F
:100E2400003A0319F62E013A0319FB2E033A03196B
:100E3400FE2E013A0319012F073A0319042F013A30
:100E44000319072F252F2608F1002508F0000A12A0
:100E54008A11CA250A128A11831203132303240454
:100E64000319352F362FA02E0930A2004F2F2A3018
:100E7400A9000230A200622F2B30A90002302A06FA
:100E8400031D452F462F622F0430A200622F273006
:100E9400A900622F2830A900622F2608003A0319FE
:100EA400542F622F2508013A0319392F033A0319E5
:100EB4003E2F013A0319492F073A03194C2F622F89
:100EC4000030F000F1000A128A11CA250A128A11B0
:100ED4000D30F500AF30F400B630F300F30B702F93
:100EE400F40B702FF50B702F0000EF2F081C7B2FD5
:100EF4007C2F912F4130F400EE30F300F30B802F60
:100F0400F40B802F000083120313081C8A2F8B2FED
:100F1400912F08188E2F8F2F8B2FA301A401881CCB
:100F2400942F952FB92F4130F400EE30F300F30BDA
:100F3400992FF40B992F000083120313881CA32FFD
:100F4400A42FB92F29088400831300082206031D47
:100F5400AC2FAD2FB12F290884008001B52F2908AB
:100F64008400013080078818B82FB92FB52F081DC9
:100F7400BC2FBD2FE12F4130F400EE30F300F30B12
:100F8400C12FF40BC12F000083120313081DCB2FB4
:100F9400CC2FE12F2908840083130008031DD32FCD
:100FA400D42FD92F2908840022088000DD2F290896
:100FB4008400013080020819E02FE12FDD2F290879
:100FC40084008313000886002608F1002508F00039
:100FD4000A128A11CA250A128A11023083120313D3
:100FE400230624040319F72FF82F782F952E0A12BD
:0C0FF4008A11002883010A128A11E22DE4
:00000001FF
