:060000000A128A11FC2F18
:100BB0000F30831203138605700871040319E12DA9
:100BC000E22DEF2D1030F2007008FF3E013EEA2DBD
:100BD0000310F20DFF3E031DE82D72088604080085
:100BE00083160313860183120313860183160313EE
:100BF00008148814081583120313A601AA01A7017B
:100C0000A801313090000B308F00DB308E00A00146
:100C1000A101A201A3010130A4000030A500A32E70
:100C2000081C132E142E2B2E4130F400EE30F3004E
:100C3000F30B182EF40B182E000083120313081C5C
:100C4000222E232E2B2E0818262E272E232E01305F
:100C5000A2000030A3000C1C2E2E2F2E712E0C1083
:100C600000302102093003192002031C382E392ECE
:100C70006B2EA001A10109302806031D402E412E34
:100C8000682EA80105302706031D472E482E652E25
:100C9000A70109302A06031D4E2E4F2E622EAA01EF
:100CA00003302A06031D552E562E5F2E02302606CF
:100CB000031D5B2E5C2E5F2EAA01A601712E013052
:100CC000A607712E0130AA07712E0130A707712ED9
:100CD0000130A807712E0130A0070318A10A0030C7
:100CE000A107280886000430F0000030F1000A1245
:100CF0008A11D8250A128A11831203132708860045
:100D00000330F0000030F1000A128A11D8250A12CF
:100D10008A11831203132A0886000230F000003083
:100D2000F1000A128A11D8250A128A1183120313BC
:100D3000260886000130F0000030F1000A128A1106
:100D4000D8250A128A1183120313220823040319D7
:100D5000AA2EAB2E102E3A2F081CAF2EB02EC72E67
:100D60004130F400EE30F300F30BB42EF40BB42E4C
:100D7000000083120313081CBE2EBF2EC72E0818B6
:100D8000C22EC32EBF2E0230A2000030A300881C4A
:100D9000CA2ECB2EE42E4130F400EE30F300F30BDC
:100DA000CF2EF40BCF2E000083120313881CD92EF4
:100DB000DA2EE42E0130A4070318A50A0030A50797
:100DC0008818E32EE42EE02E081DE72EE82E182FBB
:100DD0004130F400EE30F300F30BEC2EF40BEC2E6C
:100DE000000083120313081DF62EF72E182F013072
:100DF000A4020030031CA503A5020819002F012F2F
:100E0000FD2E182F0430A4000030A500312F260835
:100E10008600312F2A088600312F27088600312FBF
:100E200028088600312F0130A4000030A500312FA2
:100E30002508003A03191D2F312F2408003A031901
:100E4000022F013A0319072F033A03190A2F013A17
:100E500003190D2F073A0319102F013A0319132F05
:100E6000312F2508F1002408F0000A128A11D82534
:100E70000A128A1183120313220323040319412F38
:100E8000422FAC2E4F2F2630A900622F2A30A90006
:100E9000622F2730A900622F2830A900622F250871
:100EA000003A0319542F622F2408013A0319432FE3
:100EB000033A0319462F013A0319492F073A031938
:100EC0004C2F622F0030F000F1000A128A11D82551
:100ED0000A128A110D30F500AF30F400B630F3007D
:100EE000F30B702FF40B702FF50B702F0000EF2F0A
:100EF000081C7B2F7C2F912F4130F400EE30F30043
:100F0000F30B802FF40B802F000083120313081CB7
:100F10008A2F8B2F912F08188E2F8F2F8B2FA201A6
:100F2000A301881C942F952FB92F4130F400EE3087
:100F3000F300F30B992FF40B992F00008312031386
:100F4000881CA32FA42FB92F2908840009308313EC
:100F50000006031DAC2FAD2FB12F2908840080019E
:100F6000B52F29088400013080078818B82FB92FC1
:100F7000B52F081DBC2FBD2FE12F4130F400EE30FE
:100F8000F300F30BC12FF40BC12F000083120313E6
:100F9000081DCB2FCC2FE12F2908840083130008D4
:100FA000031DD32FD42FD92F2908840009308000A6
:100FB000DD2F29088400013080020819E02FE12F7D
:100FC000DD2F290884008313000886002508F1001E
:100FD0002408F0000A128A11D8250A128A11023058
:100FE00083120313220623040319F72FF82F782FF7
:100FF000A32E0A128A11002883010A128A11F02DE9
:00000001FF
