:060000000A128A11FC2F18
:100D4A000F308312031386051030F2007008FF3E3D
:100D5A00013EB12E0310F20DFF3E031DAF2E7208A5
:100D6A00860408008316031386018312031386017F
:100D7A008316031308148814081583120313A60193
:100D8A00A901A701A801313090000B308F00DB3098
:100D9A008E00A001A101A201A3010130A40000302C
:100DAA00A5005B2F081CDA2EDB2EF22E4130F40050
:100DBA00EE30F300F30BDF2EF40BDF2E000083126C
:100DCA000313081CE92EEA2EF22E0818ED2EEE2E39
:100DDA00EA2E0130A2000030A3000C1CF52EF62EDC
:100DEA00292F0C1000302102093003192002031C9C
:100DFA00FF2E002F232FA001A10109302806031D71
:100E0A00072F082F202FA80105302706031D0E2FB4
:100E1A000F2F1D2FA70109302906031D152F162F85
:100E2A001A2FA9010130A607292F0130A907292F56
:100E3A000130A707292F0130A807292F0130A00761
:100E4A000318A10A0030A107280886000430F00020
:100E5A000030F1000A128A11A5260A128A11831299
:100E6A000313270886000330F0000030F1000A124D
:100E7A008A11A5260A128A118312031329088600E9
:100E8A000230F0000030F1000A128A11A5260A1277
:100E9A008A1183120313260886000130F0000030FD
:100EAA00F1000A128A11A5260A128A118312031363
:100EBA00220823040319622F632FD72EF02F081C50
:100ECA00672F682F7D2F4130F400EE30F300F30BCB
:100EDA006C2FF40B6C2F000083120313081C762F5F
:100EEA00772F7D2F08187A2F7B2F772FA201A30146
:100EFA00881C802F812F9A2F4130F400EE30F300A6
:100F0A00F30B852FF40B852F000083120313881C23
:100F1A008F2F902F9A2F0130A4070318A50A0030AB
:100F2A00A5078818992F9A2F962F081D9D2F9E2F57
:100F3A00CE2F4130F400EE30F300F30BA22FF40B66
:100F4A00A22F000083120313081DAC2FAD2FCE2F42
:100F5A000130A4020030031CA503A5020819B62F0C
:100F6A00B72FB32FCE2F0430A4000030A500E72FEF
:100F7A0026088600E72F29088600E72F270886001B
:100F8A00E72F28088600E72F0130A4000030A500CB
:100F9A00E72F2508003A0319D32FE72F2408003A30
:100FAA000319B82F013A0319BD2F033A0319C02FA9
:100FBA00013A0319C32F073A0319C62F013A031935
:100FCA00C92FE72F2508F1002408F0000A128A1118
:100FDA00A5260A128A118312031322032304031972
:100FEA00F72FF82F642F5B2F0A128A11002883012A
:060FFA000A128A11B72E55
:00000001FF
