:060000000A128A110C280F
:10000800FE00030EF0000A08F1000A128A117D2A88
:100018000A128A110F2883120313AC01AD01830160
:100028000A128A11172883160313860183120313F1
:100038008601831603130814881408150715322837
:100048000D30F700AF30F600B630F500F50B2A2872
:10005800F60B2A28F70B2A280000382883120313E6
:10006800071D37283828242883120313071D3D2825
:100078003E2849288B170B17831603130C15831278
:1000880003130C11053097004F28313090000B30C6
:100098008F00DB308E00A001A101A301A401AA01F9
:1000A800AB01A701A801FA28081C5B285C28732863
:1000B8004130F600EE30F500F50B6028F60B6028AD
:1000C800000083120313081C6A286B287328081879
:1000D8006E286F286B280130A3000030A4000C1C88
:1000E800762877287E280C100130AC070318AD0A53
:1000F8000030AD0700302D020A3003192C02031C12
:1001080086288728C828AC01AD013B302006210489
:10011800031D8F289028C228A001A10109302806B4
:10012800031D97289828BF28A80105302706031D16
:100138009E289F28BC28A70109302B06031DA52847
:10014800A628B928AB0103302B06031DAC28AD281F
:10015800B62802302A06031DB228B328B628AB01F8
:10016800AA01C8280130AA07C8280130AB07C82847
:100178000130A707C8280130A807C8280130A00700
:100188000318A10A0030A107280886000430F200ED
:100198000030F3000A128A1165220A128A118312AA
:1001A8000313270886000330F2000030F3000A1218
:1001B8008A1165220A128A11831203132B088600FA
:1001C8000230F2000030F3000A128A1165220A1286
:1001D8008A11831203132A0886000130F2000030C6
:1001E800F3000A128A1165220A128A118312031374
:1001F800230824040319012902295828AC01AD0158
:100208000130A5000030A6009729081C0C290D29EB
:1002180024294130F600EE30F500F50B1129F60BD4
:100228001129000083120313081C1B291C292429E7
:1002380008181F2920291C290230A3000030A40017
:10024800881C2729282941294130F600EE30F5007D
:10025800F50B2C29F60B2C29000083120313881C9C
:100268003629372941290130A5070318A60A003085
:10027800A6078818402941293D29081D44294529F0
:1002880075294130F600EE30F500F50B4929F60BDB
:100298004929000083120313081D5329542975297D
:1002A8000130A5020030031CA603A60208195D2927
:1002B8005E295A2975290430A5000030A6008E2928
:1002C8002A0886008E292B0886008E292708860092
:1002D8008E29280886008E290130A5000030A60046
:1002E8008E292608003A03197A298E292508003A0A
:1002F80003195F29013A03196429033A0319672985
:10030800013A03196A29073A03196D29013A0319B1
:1003180070298E292608F3002508F2000A128A118E
:1003280065220A128A118312031323032404031972
:100338009E299F2909290930A200B8292A30A90035
:100348000230A200CB292B30A90002302A06031D57
:10035800AE29AF29CB290430A200CB292730A90028
:10036800CB292830A900CB292608003A0319BD2932
:10037800CB292508013A0319A229033A0319A72909
:10038800013A0319B229073A0319B529CB290030D4
:10039800F200F3000A128A1165220A128A110D303E
:1003A800F700AF30F600B630F500F50BD929F60B9B
:1003B800D929F70BD9290000582A081CE429E5296E
:1003C800FA294130F600EE30F500F50BE929F60B75
:1003D800E929000083120313081CF329F429FA29D8
:1003E8000818F729F829F429A301A401881CFD2974
:1003F800FE29222A4130F600EE30F500F50B022ADC
:10040800F60B022A000083120313881C0C2A0D2AFB
:10041800222A29088400831300082206031D152AAE
:10042800162A1A2A2908840080011E2A290884000D
:10043800013080078818212A222A1E2A081D252A09
:10044800262A4A2A4130F600EE30F500F50B2A2A12
:10045800F60B2A2A000083120313081D342A352AB2
:100468004A2A2908840083130008031D3C2A3D2AD0
:10047800422A2908840022088000462A2908840084
:10048800013080020819492A4A2A462A2908840084
:100498008313000886002608F3002508F2000A12D4
:1004A8008A1165220A128A11023083120313230665
:1004B80024040319602A612AE129FA280A128A11F8
:1004C8000C280F308312031386057208730403196E
:1004D8006E2A6F2A7C2A1030F4007208FF3E013E13
:1004E800772A0310F40DFF3E031D752A740886044D
:1004F8000800831203130C1D822A832A8A2A0C11EE
:100508000130AC070318AD0A0030AD0771088A0046
:0A051800700E8300FE0E7E0E090037
:00000001FF
