:060000000A128A11FC2F18
:100BDC000F30831203138605700871040319F72D67
:100BEC00F82D052E1030F2007008FF3E013E002E4D
:100BFC000310F20DFF3E031DFE2D72088604080043
:100C0C0083160313860183120313860183160313C1
:100C1C0008148814081583120313A601AA01A7014E
:100C2C00A801313090000B308F00DB308E00A0011A
:100C3C00A101A201A3010130A4000030A500B92E2E
:100C4C00081C292E2A2E412E4130F400EE30F300E0
:100C5C00F30B2E2EF40B2E2E000083120313081C04
:100C6C00382E392E412E08183C2E3D2E392E0130AF
:100C7C00A2000030A3000C1C442E452E872E0C1015
:100C8C0000302102093003192002031C4E2E4F2E76
:100C9C00812EA001A10109302806031D562E572EC6
:100CAC007E2EA80105302706031D5D2E5E2E7B2EA1
:100CBC00A70109302A06031D642E652E782EAA0181
:100CCC0003302A06031D6B2E6C2E752E0230260661
:100CDC00031D712E722E752EAA01A601872E0130CE
:100CEC00A607872E0130AA07872E0130A707872E6B
:100CFC000130A807872E0130A0070318A10A003085
:100D0C00A107280886000430F0000030F1000A1218
:100D1C008A11EE250A128A11831203132708860002
:100D2C000330F0000030F1000A128A11EE250A128D
:100D3C008A11831203132A0886000230F000003057
:100D4C00F1000A128A11EE250A128A11831203137A
:100D5C00260886000130F0000030F1000A128A11DA
:100D6C00EE250A128A118312031322082304031995
:100D7C00C02EC12E262E502F081CC52EC62EDD2EA1
:100D8C004130F400EE30F300F30BCA2EF40BCA2EF4
:100D9C00000083120313081CD42ED52EDD2E081848
:100DAC00D82ED92ED52E0230A2000030A300881CDC
:100DBC00E02EE12EFA2E4130F400EE30F300F30B6E
:100DCC00E52EF40BE52E000083120313881CEF2E86
:100DDC00F02EFA2E0130A4070318A50A0030A5073F
:100DEC008818F92EFA2EF62E081DFD2EFE2E2E2F0B
:100DFC004130F400EE30F300F30B022FF40B022F12
:100E0C00000083120313081D0C2F0D2F2E2F013001
:100E1C00A4020030031CA503A5020819162F172FD6
:100E2C00132F2E2F0430A4000030A500472F2608C6
:100E3C008600472F2A088600472F27088600472F51
:100E4C0028088600472F0130A4000030A500472F4A
:100E5C002508003A0319332F472F2408003A0319A9
:100E6C00182F013A03191D2F033A0319202F013AA9
:100E7C000319232F073A0319262F013A0319292F97
:100E8C00472F2508F1002408F0000A128A11EE25DC
:100E9C000A128A1183120313220323040319572FF6
:100EAC00582FC22E652F2630A900EF2F2A30A9000B
:100EBC00EF2F2730A900EF2F2830A900EF2F25089E
:100ECC00003A03196A2FEF2F2408013A0319592FFE
:100EDC00033A03195C2F013A03195F2F073A0319E0
:100EEC00622FEF2F081C7B2F7C2F912F4130F400A9
:100EFC00EE30F300F30B802FF40B802F00008312E5
:100F0C000313081C8A2F8B2F912F08188E2F8F2FCD
:100F1C008B2FA201A301881C942F952FB92F413040
:100F2C00F400EE30F300F30B992FF40B992F000023
:100F3C0083120313881CA32FA42FB92F2908840014
:100F4C00093083130006031DAC2FAD2FB12F2908D8
:100F5C0084008001B52F290884000130800788188F
:100F6C00B82FB92FB52F081DBC2FBD2FE12F413045
:100F7C00F400EE30F300F30BC12FF40BC12F000083
:100F8C0083120313081DCB2FCC2FE12F29088400CB
:100F9C0083130008031DD32FD42FD92F29088400C5
:100FAC0009308000DD2F29088400013080020819E7
:100FBC00E02FE12FDD2F2908840083130008860021
:100FCC002508F1002408F0000A128A11EE250A12F5
:100FDC008A11023083120313220623040319F72FFC
:100FEC00F82F782FB92E0A128A11002883010A12C1
:040FFC008A11062E22
:00000001FF
