:060000000A128A110C280F
:10000800FE00030EF0000A08F1000A128A117E2A87
:100018000A128A110F2883120313AD01AE01AF0132
:10002800B001B101B20183010A128A111B2883169B
:10003800031386018312031386018316031308141E
:1000480088140815071536280D30F700AF30F6006C
:10005800B630F500F50B2E28F60B2E28F70B2E28B8
:1000680000003C2883120313071D3B283C2828283E
:1000780083120313071D412842284D288B170B179D
:10008800831603130C15831203130C110530970004
:100098005328313090000B308F00DB308E00A001E8
:1000A800A101A301A4010030AA000030A90000307A
:1000B800A8000030A700F628081C632864287B28BD
:1000C8004130F600EE30F500F50B6828F60B68288D
:1000D800000083120313081C722873287B28081851
:1000E8007628772873280130A3000030A4000C1C60
:1000F8007E287F2886280C100130B1070318B20A21
:100108000030B207003032020A3003193102031CF2
:100118008E288F28D028B101B2013B302006210457
:10012800031D97289828CA28A001A10109302A068A
:10013800031D9F28A028C728AA0105302906031DEA
:10014800A628A728C428A90109302806031DAD2818
:10015800AE28C128A80103302806031DB428B528F5
:10016800BE2802302706031DBA28BB28BE28A801CE
:10017800A701D0280130A707D0280130A807D02828
:100188000130A907D0280130AA07D0280130A007DC
:100198000318A10A0030A107A501A6012508273EDA
:1001A80084008313000886002508013EF200260813
:1001B8000318013E003EF3000A128A1166220A1251
:1001C8008A11013083120313A5070318A60A003009
:1001D800A60700302602043003192502031CF5285F
:1001E800F628D2288312230824040319FC28FD28A2
:1001F8006028831603130C1183120313B101B20193
:100208000130AB000030AC009729081C0C290D29DF
:1002180024294130F600EE30F500F50B1129F60BD4
:100228001129000083120313081C1B291C292429E7
:1002380008181F2920291C290230A3000030A40017
:10024800881C2729282941294130F600EE30F5007D
:10025800F50B2C29F60B2C29000083120313881C9C
:100268003629372941290130AB070318AC0A003079
:10027800AC078818402941293D29081D44294529EA
:1002880075294130F600EE30F500F50B4929F60BDB
:100298004929000083120313081D5329542975297D
:1002A8000130AB020030031CAC03AC0208195D2915
:1002B8005E295A2975290430AB000030AC008E291C
:1002C800270886008E29280886008E292908860096
:1002D8008E292A0886008E290130AB000030AC0038
:1002E8008E292C08003A03197A298E292B08003AFE
:1002F80003195F29013A03196429033A0319672985
:10030800013A03196A29073A03196D29013A0319B1
:1003180070298E292C08F3002B08F2000A128A1182
:1003280066220A128A118312031323032404031971
:100338009E299F2909290930A200AE290230A2006E
:10034800BB2902302706031DAA29AB29BB29043083
:10035800A200BB292C08003A0319B329BB292B0892
:10036800013A0319A229033A0319A529BB29003028
:10037800F200F3000A128A1166220A128A110D305D
:10038800F700AF30F600B630F500F50BC929F60BCB
:10039800C929F70BC9290000562A081CD429D529D0
:1003A800EA294130F600EE30F500F50BD929F60BB5
:1003B800D929000083120313081CE329E429EA2938
:1003C8000818E729E829E429A301A401881CED29D4
:1003D800EE29182A4130F600EE30F500F50BF22927
:1003E800F60BF229000083120313881CFC29FD294F
:1003F800182A2B08FF3E273E840083130008220694
:10040800031D072A082A0E2A2B08FF3E273E8400D0
:100418008001142A2B08FF3E273E84000130800704
:100428008818172A182A142A081D1B2A1C2A462A43
:100438004130F600EE30F500F50B202AF60B202AA5
:10044800000083120313081D2A2A2B2A462A2B0888
:10045800FF3E273E840083130008031D342A352AF3
:100468003C2A2B08FF3E273E840022088000422AAF
:100478002B08FF3E273E8400013080020819452AD8
:10048800462A422A2B08FF3E273E84008313000891
:1004980086002C08F3002B08F2000A128A11662243
:1004A8000A128A1102308312031323062404031943
:1004B8005E2A5F2AD129831603130C15F6280A121F
:1004C8008A110C280F3083120313860572087304EF
:1004D80003196F2A702A7D2A1030F4007208FF3E33
:1004E800013E782A0310F40DFF3E031D762A740896
:1004F80086040800831203130C1D832A842A8B2A7E
:100508000C110130B1070318B20A0030B2077108A4
:0C0518008A00700E8300FE0E7E0E0900AB
:00000001FF
