:060000000A128A11FC2F18
:100E92000F308312031386051030F2007008FF3EF4
:100EA200013E552F0310F20DFF3E031D532F720812
:100EB2008604080083160313860183120313860136
:100EC200F701FA01F801F9010730831603138100D3
:100ED200831203138101F501F6010B1D712F722F8D
:100EE200A42F0B110130F5070318F60A0030F6079C
:100EF200003076024C3003197502031C812F822FB9
:100F0200A42FF501F60109307906031D892F8A2FD6
:100F1200A22FF90105307806031D902F912F9F2FE4
:100F2200F80109307A06031D972F982F9C2FFA019A
:100F32000130F707A42F0130FA07A42F0130F80778
:100F4200A42F0130F90779088312031386000430B5
:100F5200F0000030F1000A128A1149270A128A11A0
:100F62000730F4007D30F300F30BB52FF40BB52FEF
:100F720078088312031386000330F0000030F1007A
:100F82000A128A1149270A128A110730F4007D30A9
:100F9200F300F30BCA2FF40BCA2F7A088312031340
:100FA20086000230F0000030F1000A128A1149274F
:100FB2000A128A110730F4007D30F300F30BDF2FA1
:100FC200F40BDF2F77088312031386000130F00041
:100FD2000030F1000A128A1149270A128A110730D9
:100FE200F4007D30F300F30BF42FF40BF42F6E2F8B
:0E0FF2000A128A11002883010A128A115B2F4D
:00000001FF
